{
  "contractName": "Auction",
  "abi": [
    {
      "constant": true,
      "inputs": [],
      "name": "endBlock",
      "outputs": [
        {
          "name": "",
          "type": "uint256"
        }
      ],
      "payable": false,
      "stateMutability": "view",
      "type": "function"
    },
    {
      "constant": false,
      "inputs": [],
      "name": "withdraw",
      "outputs": [
        {
          "name": "success",
          "type": "bool"
        }
      ],
      "payable": false,
      "stateMutability": "nonpayable",
      "type": "function"
    },
    {
      "constant": true,
      "inputs": [],
      "name": "canceled",
      "outputs": [
        {
          "name": "",
          "type": "bool"
        }
      ],
      "payable": false,
      "stateMutability": "view",
      "type": "function"
    },
    {
      "constant": true,
      "inputs": [],
      "name": "startBlock",
      "outputs": [
        {
          "name": "",
          "type": "uint256"
        }
      ],
      "payable": false,
      "stateMutability": "view",
      "type": "function"
    },
    {
      "constant": true,
      "inputs": [],
      "name": "getHighestBid",
      "outputs": [
        {
          "name": "",
          "type": "uint256"
        }
      ],
      "payable": false,
      "stateMutability": "view",
      "type": "function"
    },
    {
      "constant": true,
      "inputs": [],
      "name": "owner",
      "outputs": [
        {
          "name": "",
          "type": "address"
        }
      ],
      "payable": false,
      "stateMutability": "view",
      "type": "function"
    },
    {
      "constant": false,
      "inputs": [],
      "name": "cancelAuction",
      "outputs": [
        {
          "name": "success",
          "type": "bool"
        }
      ],
      "payable": false,
      "stateMutability": "nonpayable",
      "type": "function"
    },
    {
      "constant": true,
      "inputs": [],
      "name": "highestBidder",
      "outputs": [
        {
          "name": "",
          "type": "address"
        }
      ],
      "payable": false,
      "stateMutability": "view",
      "type": "function"
    },
    {
      "constant": true,
      "inputs": [],
      "name": "bidIncrement",
      "outputs": [
        {
          "name": "",
          "type": "uint256"
        }
      ],
      "payable": false,
      "stateMutability": "view",
      "type": "function"
    },
    {
      "constant": true,
      "inputs": [],
      "name": "ipfsHash",
      "outputs": [
        {
          "name": "",
          "type": "string"
        }
      ],
      "payable": false,
      "stateMutability": "view",
      "type": "function"
    },
    {
      "constant": true,
      "inputs": [
        {
          "name": "",
          "type": "address"
        }
      ],
      "name": "fundsByBidder",
      "outputs": [
        {
          "name": "",
          "type": "uint256"
        }
      ],
      "payable": false,
      "stateMutability": "view",
      "type": "function"
    },
    {
      "constant": false,
      "inputs": [],
      "name": "placeBid",
      "outputs": [
        {
          "name": "success",
          "type": "bool"
        }
      ],
      "payable": true,
      "stateMutability": "payable",
      "type": "function"
    },
    {
      "constant": true,
      "inputs": [],
      "name": "highestBindingBid",
      "outputs": [
        {
          "name": "",
          "type": "uint256"
        }
      ],
      "payable": false,
      "stateMutability": "view",
      "type": "function"
    },
    {
      "inputs": [
        {
          "name": "_owner",
          "type": "address"
        },
        {
          "name": "_bidIncrement",
          "type": "uint256"
        },
        {
          "name": "_startBlock",
          "type": "uint256"
        },
        {
          "name": "_endBlock",
          "type": "uint256"
        },
        {
          "name": "_ipfsHash",
          "type": "string"
        }
      ],
      "payable": false,
      "stateMutability": "nonpayable",
      "type": "constructor"
    },
    {
      "anonymous": false,
      "inputs": [
        {
          "indexed": false,
          "name": "bidder",
          "type": "address"
        },
        {
          "indexed": false,
          "name": "bid",
          "type": "uint256"
        },
        {
          "indexed": false,
          "name": "highestBidder",
          "type": "address"
        },
        {
          "indexed": false,
          "name": "highestBid",
          "type": "uint256"
        },
        {
          "indexed": false,
          "name": "highestBindingBid",
          "type": "uint256"
        }
      ],
      "name": "LogBid",
      "type": "event"
    },
    {
      "anonymous": false,
      "inputs": [
        {
          "indexed": false,
          "name": "withdrawer",
          "type": "address"
        },
        {
          "indexed": false,
          "name": "withdrawalAccount",
          "type": "address"
        },
        {
          "indexed": false,
          "name": "amount",
          "type": "uint256"
        }
      ],
      "name": "LogWithdrawal",
      "type": "event"
    },
    {
      "anonymous": false,
      "inputs": [],
      "name": "LogCanceled",
      "type": "event"
    }
  ],
  "bytecode": "0x6060604052341561000f57600080fd5b60405162000f9e38038062000f9e83398101604052808051906020019091908051906020019091908051906020019091908051906020019091908051820191905050818310151561005f57600080fd5b4383101561006c57600080fd5b60008573ffffffffffffffffffffffffffffffffffffffff16141561009057600080fd5b846000806101000a81548173ffffffffffffffffffffffffffffffffffffffff021916908373ffffffffffffffffffffffffffffffffffffffff16021790555083600181905550826002819055508160038190555080600490805190602001906100fb929190610106565b5050505050506101ab565b828054600181600116156101000203166002900490600052602060002090601f016020900481019282601f1061014757805160ff1916838001178555610175565b82800160010185558215610175579182015b82811115610174578251825591602001919060010190610159565b5b5090506101829190610186565b5090565b6101a891905b808211156101a457600081600090555060010161018c565b5090565b90565b610de380620001bb6000396000f3006060604052600436106100c5576000357c0100000000000000000000000000000000000000000000000000000000900463ffffffff168063083c6323146100ca5780633ccfd60b146100f35780633f9942ff1461012057806348cd4cb11461014d5780634979440a146101765780638da5cb5b1461019f5780638fa8b790146101f457806391f9015714610221578063b3cc167a14610276578063c623674f1461029f578063ce10cf801461032d578063ecfc7ecc1461037a578063f5b56c561461039c575b600080fd5b34156100d557600080fd5b6100dd6103c5565b6040518082815260200191505060405180910390f35b34156100fe57600080fd5b6101066103cb565b604051808215151515815260200191505060405180910390f35b341561012b57600080fd5b6101336107e8565b604051808215151515815260200191505060405180910390f35b341561015857600080fd5b6101606107fb565b6040518082815260200191505060405180910390f35b341561018157600080fd5b610189610801565b6040518082815260200191505060405180910390f35b34156101aa57600080fd5b6101b261086a565b604051808273ffffffffffffffffffffffffffffffffffffffff1673ffffffffffffffffffffffffffffffffffffffff16815260200191505060405180910390f35b34156101ff57600080fd5b61020761088f565b604051808215151515815260200191505060405180910390f35b341561022c57600080fd5b610234610963565b604051808273ffffffffffffffffffffffffffffffffffffffff1673ffffffffffffffffffffffffffffffffffffffff16815260200191505060405180910390f35b341561028157600080fd5b610289610989565b6040518082815260200191505060405180910390f35b34156102aa57600080fd5b6102b261098f565b6040518080602001828103825283818151815260200191508051906020019080838360005b838110156102f25780820151818401526020810190506102d7565b50505050905090810190601f16801561031f5780820380516001836020036101000a031916815260200191505b509250505060405180910390f35b341561033857600080fd5b610364600480803573ffffffffffffffffffffffffffffffffffffffff16906020019091905050610a2d565b6040518082815260200191505060405180910390f35b610382610a45565b604051808215151515815260200191505060405180910390f35b34156103a757600080fd5b6103af610d95565b6040518082815260200191505060405180910390f35b60035481565b6000806000600354431080156103ee5750600560009054906101000a900460ff16155b156103f857600080fd5b600560009054906101000a900460ff161561045757339150600860008373ffffffffffffffffffffffffffffffffffffffff1673ffffffffffffffffffffffffffffffffffffffff1681526020019081526020016000205490506106a5565b6000809054906101000a900473ffffffffffffffffffffffffffffffffffffffff1673ffffffffffffffffffffffffffffffffffffffff163373ffffffffffffffffffffffffffffffffffffffff1614156104f657600760009054906101000a900473ffffffffffffffffffffffffffffffffffffffff16915060065490506001600960006101000a81548160ff0219169083151502179055506106a4565b600760009054906101000a900473ffffffffffffffffffffffffffffffffffffffff1673ffffffffffffffffffffffffffffffffffffffff163373ffffffffffffffffffffffffffffffffffffffff16141561065d57600760009054906101000a900473ffffffffffffffffffffffffffffffffffffffff169150600960009054906101000a900460ff16156105ef5760086000600760009054906101000a900473ffffffffffffffffffffffffffffffffffffffff1673ffffffffffffffffffffffffffffffffffffffff1673ffffffffffffffffffffffffffffffffffffffff168152602001908152602001600020549050610658565b60065460086000600760009054906101000a900473ffffffffffffffffffffffffffffffffffffffff1673ffffffffffffffffffffffffffffffffffffffff1673ffffffffffffffffffffffffffffffffffffffff168152602001908152602001600020540390505b6106a3565b339150600860008373ffffffffffffffffffffffffffffffffffffffff1673ffffffffffffffffffffffffffffffffffffffff1681526020019081526020016000205490505b5b5b60008114156106b357600080fd5b80600860008473ffffffffffffffffffffffffffffffffffffffff1673ffffffffffffffffffffffffffffffffffffffff168152602001908152602001600020600082825403925050819055503373ffffffffffffffffffffffffffffffffffffffff166108fc829081150290604051600060405180830381858888f19350505050151561074057600080fd5b7f0ec497a8ae5b1ba29c60470ef651def995fac3deebbdcc56c47a4e5f51a4c2bd338383604051808473ffffffffffffffffffffffffffffffffffffffff1673ffffffffffffffffffffffffffffffffffffffff1681526020018373ffffffffffffffffffffffffffffffffffffffff1673ffffffffffffffffffffffffffffffffffffffff168152602001828152602001935050505060405180910390a160019250505090565b600560009054906101000a900460ff1681565b60025481565b600060086000600760009054906101000a900473ffffffffffffffffffffffffffffffffffffffff1673ffffffffffffffffffffffffffffffffffffffff1673ffffffffffffffffffffffffffffffffffffffff16815260200190815260200160002054905090565b6000809054906101000a900473ffffffffffffffffffffffffffffffffffffffff1681565b60008060009054906101000a900473ffffffffffffffffffffffffffffffffffffffff1673ffffffffffffffffffffffffffffffffffffffff163373ffffffffffffffffffffffffffffffffffffffff161415156108ec57600080fd5b6003544311156108fb57600080fd5b600560009054906101000a900460ff161561091557600080fd5b6001600560006101000a81548160ff0219169083151502179055507f462b6ca7f632601af1295aeb320851f50e8e630a309173f23535845ea4bfb3b960405160405180910390a16001905090565b600760009054906101000a900473ffffffffffffffffffffffffffffffffffffffff1681565b60015481565b60048054600181600116156101000203166002900480601f016020809104026020016040519081016040528092919081815260200182805460018160011615610100020316600290048015610a255780601f106109fa57610100808354040283529160200191610a25565b820191906000526020600020905b815481529060010190602001808311610a0857829003601f168201915b505050505081565b60086020528060005260406000206000915090505481565b6000806000600254431015610a5957600080fd5b600354431115610a6857600080fd5b600560009054906101000a900460ff1615610a8257600080fd5b6000809054906101000a900473ffffffffffffffffffffffffffffffffffffffff1673ffffffffffffffffffffffffffffffffffffffff163373ffffffffffffffffffffffffffffffffffffffff161415610adc57600080fd5b6000341415610aea57600080fd5b34600860003373ffffffffffffffffffffffffffffffffffffffff1673ffffffffffffffffffffffffffffffffffffffff1681526020019081526020016000205401915060065482111515610b3e57600080fd5b60086000600760009054906101000a900473ffffffffffffffffffffffffffffffffffffffff1673ffffffffffffffffffffffffffffffffffffffff1673ffffffffffffffffffffffffffffffffffffffff16815260200190815260200160002054905081600860003373ffffffffffffffffffffffffffffffffffffffff1673ffffffffffffffffffffffffffffffffffffffff168152602001908152602001600020819055508082111515610c0857610bfd600154830182610d9b565b600681905550610cb9565b600760009054906101000a900473ffffffffffffffffffffffffffffffffffffffff1673ffffffffffffffffffffffffffffffffffffffff163373ffffffffffffffffffffffffffffffffffffffff16141515610cb55733600760006101000a81548173ffffffffffffffffffffffffffffffffffffffff021916908373ffffffffffffffffffffffffffffffffffffffff160217905550610cae826001548301610d9b565b6006819055505b8190505b7ff152f4ff5e488c55370a2d53925a55055228ebd8ec95bd0251bbb299e48786b03383600760009054906101000a900473ffffffffffffffffffffffffffffffffffffffff1684600654604051808673ffffffffffffffffffffffffffffffffffffffff1673ffffffffffffffffffffffffffffffffffffffff1681526020018581526020018473ffffffffffffffffffffffffffffffffffffffff1673ffffffffffffffffffffffffffffffffffffffff1681526020018381526020018281526020019550505050505060405180910390a160019250505090565b60065481565b600081831015610dad57829050610db1565b8190505b929150505600a165627a7a72305820a6d1ebf08a1f5b2391a005ba3591fd5929ddf297f6bfeb9ea5b392dc4200aa8f0029",
  "source": "pragma solidity ^0.4.8;\n\ncontract Auction {\n    // static\n    address public owner;\n    uint public bidIncrement;\n    uint public startBlock;\n    uint public endBlock;\n    string public ipfsHash;\n\n    // state\n    bool public canceled;\n    uint public highestBindingBid;\n    address public highestBidder;\n    mapping(address => uint256) public fundsByBidder;\n    bool ownerHasWithdrawn;\n\n    event LogBid(address bidder, uint bid, address highestBidder, uint highestBid, uint highestBindingBid);\n    event LogWithdrawal(address withdrawer, address withdrawalAccount, uint amount);\n    event LogCanceled();\n\n    function Auction(address _owner, uint _bidIncrement, uint _startBlock, uint _endBlock, string _ipfsHash) {\n        if (_startBlock >= _endBlock) throw;\n        if (_startBlock < block.number) throw;\n        if (_owner == 0) throw;\n\n        owner = _owner;\n        bidIncrement = _bidIncrement;\n        startBlock = _startBlock;\n        endBlock = _endBlock;\n        ipfsHash = _ipfsHash;\n    }\n\n    function getHighestBid()\n        constant\n        returns (uint)\n    {\n        return fundsByBidder[highestBidder];\n    }\n\n    function placeBid()\n        payable\n        onlyAfterStart\n        onlyBeforeEnd\n        onlyNotCanceled\n        onlyNotOwner\n        returns (bool success)\n    {\n        // reject payments of 0 ETH\n        if (msg.value == 0) throw;\n\n        // calculate the user's total bid based on the current amount they've sent to the contract\n        // plus whatever has been sent with this transaction\n        uint newBid = fundsByBidder[msg.sender] + msg.value;\n\n        // if the user isn't even willing to overbid the highest binding bid, there's nothing for us\n        // to do except revert the transaction.\n        if (newBid <= highestBindingBid) throw;\n\n        // grab the previous highest bid (before updating fundsByBidder, in case msg.sender is the\n        // highestBidder and is just increasing their maximum bid).\n        uint highestBid = fundsByBidder[highestBidder];\n\n        fundsByBidder[msg.sender] = newBid;\n\n        if (newBid <= highestBid) {\n            // if the user has overbid the highestBindingBid but not the highestBid, we simply\n            // increase the highestBindingBid and leave highestBidder alone.\n\n            // note that this case is impossible if msg.sender == highestBidder because you can never\n            // bid less ETH than you've already bid.\n\n            highestBindingBid = min(newBid + bidIncrement, highestBid);\n        } else {\n            // if msg.sender is already the highest bidder, they must simply be wanting to raise\n            // their maximum bid, in which case we shouldn't increase the highestBindingBid.\n\n            // if the user is NOT highestBidder, and has overbid highestBid completely, we set them\n            // as the new highestBidder and recalculate highestBindingBid.\n\n            if (msg.sender != highestBidder) {\n                highestBidder = msg.sender;\n                highestBindingBid = min(newBid, highestBid + bidIncrement);\n            }\n            highestBid = newBid;\n        }\n\n        LogBid(msg.sender, newBid, highestBidder, highestBid, highestBindingBid);\n        return true;\n    }\n\n    function min(uint a, uint b)\n        private\n        constant\n        returns (uint)\n    {\n        if (a < b) return a;\n        return b;\n    }\n\n    function cancelAuction()\n        onlyOwner\n        onlyBeforeEnd\n        onlyNotCanceled\n        returns (bool success)\n    {\n        canceled = true;\n        LogCanceled();\n        return true;\n    }\n\n    function withdraw()\n        onlyEndedOrCanceled\n        returns (bool success)\n    {\n        address withdrawalAccount;\n        uint withdrawalAmount;\n\n        if (canceled) {\n            // if the auction was canceled, everyone should simply be allowed to withdraw their funds\n            withdrawalAccount = msg.sender;\n            withdrawalAmount = fundsByBidder[withdrawalAccount];\n\n        } else {\n            // the auction finished without being canceled\n\n            if (msg.sender == owner) {\n                // the auction's owner should be allowed to withdraw the highestBindingBid\n                withdrawalAccount = highestBidder;\n                withdrawalAmount = highestBindingBid;\n                ownerHasWithdrawn = true;\n\n            } else if (msg.sender == highestBidder) {\n                // the highest bidder should only be allowed to withdraw the difference between their\n                // highest bid and the highestBindingBid\n                withdrawalAccount = highestBidder;\n                if (ownerHasWithdrawn) {\n                    withdrawalAmount = fundsByBidder[highestBidder];\n                } else {\n                    withdrawalAmount = fundsByBidder[highestBidder] - highestBindingBid;\n                }\n\n            } else {\n                // anyone who participated but did not win the auction should be allowed to withdraw\n                // the full amount of their funds\n                withdrawalAccount = msg.sender;\n                withdrawalAmount = fundsByBidder[withdrawalAccount];\n            }\n        }\n\n        if (withdrawalAmount == 0) throw;\n\n        fundsByBidder[withdrawalAccount] -= withdrawalAmount;\n\n        // send the funds\n        if (!msg.sender.send(withdrawalAmount)) throw;\n\n        LogWithdrawal(msg.sender, withdrawalAccount, withdrawalAmount);\n\n        return true;\n    }\n\n    modifier onlyOwner {\n        if (msg.sender != owner) throw;\n        _;\n    }\n\n    modifier onlyNotOwner {\n        if (msg.sender == owner) throw;\n        _;\n    }\n\n    modifier onlyAfterStart {\n        if (block.number < startBlock) throw;\n        _;\n    }\n\n    modifier onlyBeforeEnd {\n        if (block.number > endBlock) throw;\n        _;\n    }\n\n    modifier onlyNotCanceled {\n        if (canceled) throw;\n        _;\n    }\n\n    modifier onlyEndedOrCanceled {\n        if (block.number < endBlock && !canceled) throw;\n        _;\n    }\n}\n",
  "sourcePath": "/Users/lakshmikanth/Documents/truffle-poc/contracts/Auction.sol",
  "compiler": {
    "name": "solc",
    "version": "0.4.18+commit.9cf6e910.Emscripten.clang"
  },
  "schemaVersion": "1.0.1",
  "updatedAt": "2018-01-04T16:07:59.023Z"
}